:10000300ED14600C1460131460192403701E801C1B
:100013009000007401F0E4FE8018E4900000F07E8C
:1000230001800F9000007401F0FE8006E490000050
:10003300F0FEEF249E601E14602F146040240370B2
:100043004F900000E024FF9280EE24FF9281A3E012
:1000530024FF92A022900000E024FF9282EE24FF6E
:100063009283A3E024FF92A122900000E024FF9258
:1000730084EE24FF9285A3E024FF92A22290000045
:10008300E024FF9286EE24FF9287A3E024FF92A34D
:01009300224A
:0400F6007FD07E0732
:1000FA00EF1FAA0670011E4A600BE4FDEDC3947857
:05010A0050EE0D80F72E
:01010F0022CD
:100094007590FF7580FF7FE87E031200FA7D017F73
:1000A400611200031200F67D017F62120003120048
:1000B400F67D017F631200031200F67D017F641256
:1000C40000031200F67D037F611200031200F67D27
:1000D400037F621200031200F67D037F63120003A4
:1000E4001200F67D037F641200031200F67580FF90
:0200F40080ABDF
:03000000020110EA
:0C011000787FE4F6D8FD758107020094AA
:00000001FF
