:10000300D200D201D202ED14600714600C240280E6
:100013000CD200C201D202800AC2008002D200D2F6
:1000230001D202EF14601714602114602B240370B3
:1000330033A20092A1A20192A2A20292A022A20044
:1000430092A3A20192A4A20292A522A2009291A23B
:10005300019292A202929022A2009293A201929400
:04006300A2029295CE
:010067002276
:0400CA007FD07E075E
:1000CE00EF1FAA0670011E4A600BE4FDEDC3947883
:0500DE0050EE0D80F75B
:0100E30022FA
:100068007590FF75A0FF7FE87E031200CE7D01E446
:10007800FF1200031200CA7D017F01120003120063
:10008800CA7D017F021200031200CA7D017F03129C
:1000980000031200CAE4FDFF1200031200CAE4FDC7
:1000A8007F011200031200CAE4FD7F02120003124E
:1000B80000CAE4FD7F031200037FA07E0F1200CE6A
:0200C80080AB0B
:030000000200E417
:0C00E400787FE4F6D8FD758120020068EA
:00000001FF
